:100000000C942A000C9447000C9447000C94470071
:100010000C9447000C9447000C9447000C94470044
:100020000C9447000C9447000C94EB070C94470089
:100030000C9447000C9447000C9447000C94470024
:100040000C9447000C9447000C9447000C94470014
:100050000C94470011241FBECFE5D8E0DEBFCDBF12
:1000600011E0A0E6B0E0E6E9F4E202C005900D92EE
:10007000A837B107D9F711E0A8E7B1E001C01D9298
:10008000A738B107E1F70E9496110C9449120C941D
:100090000000EF92FF920F931F937B018C0120E0F1
:1000A00030E040E05FE40E94C50388238CF0C80183
:1000B000B70120E030E040E05FE40E94C1010E940F
:1000C000F5039B01AC01205030404040504806C031
:1000D000C801B7010E94F5039B01AC01B901CA0137
:1000E0001F910F91FF90EF900895A0E0B0E0EBE733
:1000F000F0E00C941212DC012B01FA019C91923079
:1001000008F439C1EB018881823008F433C194309E
:1001100069F4843009F02FC111969C91119789815F
:10012000981709F428C1A0E6B0E025C1843009F48D
:1001300021C18230A9F4923009F01DC19A01AD01AC
:1001400088E0EA010990AE01E90109929E0181501F
:10015000C1F7E201898111969C918923818308C1AD
:10016000923009F407C112962D903C901397EB0141
:100170008A819B811496AD90BD90CD90DC901797AD
:10018000EC80FD800E811F819101281B390BB90184
:1001900037FF04C066277727621B730B6032710537
:1001A0000CF061C0121613066CF537014801062EDB
:1001B00004C096948794779467940A94D2F721E0C8
:1001C00030E040E050E004C0220F331F441F551FB1
:1001D0006A95D2F721503040404050402E213F21B7
:1001E00040235123211531054105510521F021E01E
:1001F00030E040E050E079018A01E628F72808293C
:1002000019293CC0232BD1F1260E371E350146019A
:10021000062E04C096948794779467940A94D2F734
:1002200021E030E040E050E004C0220F331F441FC3
:10023000551F6A95D2F721503040404050402A2146
:100240003B214C215D21211531054105510521F04E
:1002500021E030E040E050E059016A01A628B728CB
:10026000C828D9280BC0821593052CF01C01AA249C
:10027000BB24650103C0EE24FF24870111969C91E5
:10028000D20111968C91981709F445C0992339F041
:10029000A80197012A193B094C095D0906C0A6016E
:1002A00095012E193F09400B510B57FD08C01182D3
:1002B0003382228224833583468357831DC081E0A5
:1002C00081833382228288279927DC01821B930B4A
:1002D000A40BB50B84839583A683B7830DC0220F2F
:1002E000331F441F551F24833583468357838281E0
:1002F000938101979383828324813581468157813D
:10030000DA01C9010197A109B1098F5F9F4FAF4F72
:10031000BF4328F30BC0918333822282EA0CFB1C7B
:100320000C1D1D1DE482F5820683178383E0808304
:10033000248135814681578157FF1AC0C901AA27F8
:1003400097FDA095BA2F81709070A070B0705695EF
:10035000479537952795822B932BA42BB52B848318
:100360009583A683B7838281938101969383828349
:10037000DF0101C0D201CD01CDB7DEB7E2E10C94BF
:100380002E12A0E2B0E0E7ECF1E00C941E126983BB
:100390007A838B839C832D833E834F835887E9E048
:1003A000EE2EF12CEC0EFD1ECE010196B7010E943F
:1003B000E6058E010F5E1F4FCE010596B8010E9423
:1003C000E6058A8991E089278A8BC701B801AE01C9
:1003D000475E5F4F0E9475000E941105A096E6E0FF
:1003E0000C943A12A0E2B0E0E8EFF1E00C941E1297
:1003F00069837A838B839C832D833E834F835887C5
:10040000F9E0EF2EF12CEC0EFD1ECE010196B701A6
:100410000E94E6058E010F5E1F4FCE010596B801C2
:100420000E94E605C701B801AE01475E5F4F0E941A
:1004300075000E941105A096E6E00C943A12A0E225
:10044000B0E0E5E2F2E00C94121269837A838B83C8
:100450009C832D833E834F835887CE010196BE0136
:10046000675F7F4F0E94E605CE010596BE016F5E75
:100470007F4F0E94E6059985923088F08989823005
:10048000C8F0943019F4823051F404C0843029F457
:10049000923081F480E690E0C6C0923049F420E0CA
:1004A0009A858A89981321E02A87CE010996BBC0D4
:1004B000823049F420E09A858A89981321E02A8BBA
:1004C000CE014196B0C02D843E844F8458886D88FB
:1004D0007E888F88988CEE24FF248701AA24BB2471
:1004E000650140E050E060E070E0E0E0F0E0C10174
:1004F00081709070892BE9F0E60CF71C081D191D1E
:100500009A01AB012A0D3B1D4C1D5D1D80E090E062
:10051000A0E0B0E0E614F7040805190520F481E036
:1005200090E0A0E0B0E0BA01A901480F591F6A1F8E
:100530007B1FAA0CBB1CCC1CDD1C97FE08C081E0F5
:1005400090E0A0E0B0E0A82AB92ACA2ADB2A3196B6
:10055000E032F10549F0660C771C881C991C569412
:10056000479437942794C3CFFA85EA892B893C892D
:100570008B859C85280F391F2E5F3F4F17C0CA01FE
:1005800081709070892B61F016950795F794E79428
:1005900080E090E0A0E0B0E8E82AF92A0A2B1B2BC3
:1005A00076956795579547952F5F3F4F77FDE7CF36
:1005B0000CC0440F551F661F771F17FD4160EE0CDE
:1005C000FF1C001F111F21503040403090E05907A0
:1005D00090E0690790E4790760F32B8F3C8FDB0193
:1005E000CA018F779070A070B07080349105A1051A
:1005F000B10561F447FD0AC0E114F10401051105DC
:1006000029F0405C5F4F6F4F7F4F40781A8EFE1786
:1006100011F081E08A8F4D8F5E8F6F8F78A383E01A
:10062000898FCE0149960E941105A096E2E10C94B3
:100630002E12A8E1B0E0EFE1F3E00C941A12698306
:100640007A838B839C832D833E834F835887B9E0C5
:10065000EB2EF12CEC0EFD1ECE010196B7010E948F
:10066000E6058E010F5E1F4FCE010596B8010E9470
:10067000E6052985223008F47EC03989323010F42D
:10068000B8017CC08A859A8989278A87243011F02D
:10069000223031F4231709F06EC060E670E06EC0BE
:1006A000343039F41D861E861F86188A1C861B86E8
:1006B00004C0323021F484E08987B7015FC02B8504
:1006C0003C858B899C89281B390B3C872B87ED84C3
:1006D000FE840F851889AD88BE88CF88D88CEA142F
:1006E000FB040C051D0540F4EE0CFF1C001F111F40
:1006F000215030403C872B8720E030E040E050E044
:1007000080E090E0A0E0B0E460E070E0EA14FB0478
:100710000C051D0540F0282B392B4A2B5B2BEA18C2
:10072000FB080C091D09B695A79597958795EE0CC2
:10073000FF1C001F111F6F5F7F4F6F31710531F775
:10074000DA01C9018F779070A070B0708034910584
:10075000A105B10561F427FD0AC0E114F10401050A
:10076000110529F0205C3F4F4F4F5F4F20782D87B8
:100770003E874F87588BBE01675F7F4FCB010E943A
:1007800011056896EAE00C943612A8E1B0E0EBECB3
:10079000F3E00C941E1269837A838B839C832D83F0
:1007A0003E834F83588789E0E82EF12CEC0EFD1E26
:1007B000CE010196B7010E94E6058E010F5E1F4F24
:1007C000CE010596B8010E94E6058985823040F089
:1007D0008989823028F0C701B8010E945E0601C0F5
:1007E0008FEF6896E6E00C943A12ACE0B0E0EBEFE5
:1007F000F3E00C94221269837A838B839C83CE016D
:100800000196BE016B5F7F4F0E94E6058D818230AD
:1008100061F1823050F1843021F48E81882351F1CE
:100820002EC02F81388537FD20C06E812F313105D4
:100830001CF06623F9F023C08EE190E0821B930B3D
:1008400029853A854B855C8504C056954795379533
:1008500027958A95D2F76623B1F05095409530954B
:1008600021953F4F4F4F5F4F0EC020E030E040E0FA
:1008700050E009C02FEF3FEF4FEF5FE704C020E0EB
:1008800030E040E050E8B901CA012C96E2E00C9457
:100890003E12A8E0B0E0EFE4F4E00C941A127B0101
:1008A0008C01611571058105910519F482E0898338
:1008B00060C083E089838EE1C82ED12CDC82CB829C
:1008C000ED82FE820F831887C801B7010E94C2041F
:1008D000FC013197F7FF3BC0222733272E1B3F0B2C
:1008E00057016801022E04C0D694C794B794A79408
:1008F0000A94D2F740E050E060E070E081E090E0E0
:10090000A0E0B0E004C0880F991FAA1FBB1F2A9562
:10091000D2F70197A109B1098E219F21A023B1230C
:100920000097A105B10521F041E050E060E070E0E2
:100930004A295B296C297D294D835E836F837887E3
:100940008EE190E08E1B9F0B9C838B8312C03097AF
:1009500081F00E2E04C0EE0CFF1C001F111F0A9424
:10096000D2F7ED82FE820F831887CE1ADF0ADC826F
:10097000CB821A82CE0101960E9411052896EAE0E8
:100980000C943612EF92FF920F931F937B018C0110
:1009900080E0E81680E0F80681E0080780E01807AC
:1009A00088F48FEFE816F1040105110531F028F005
:1009B00088E090E0A0E0B0E017C080E090E0A0E028
:1009C000B0E012C080E0E81680E0F80680E008079A
:1009D00081E0180728F088E190E0A0E0B0E004C0D2
:1009E00080E190E0A0E0B0E020E230E040E050E0C4
:1009F000281B390B4A0B5B0B04C016950795F7941F
:100A0000E7948A95D2F7F701E859FF4F8081281BB8
:100A1000310941095109C9011F910F91FF90EF90D0
:100A20000895DF92EF92FF920F931F93FC01E480F1
:100A3000F58006811781D1808081823048F480E082
:100A400090E0A0E1B0E0E82AF92A0A2B1B2BA5C010
:100A5000843009F49FC0823021F4EE24FF24870102
:100A600005C0E114F1040105110519F4E0E0F0E01E
:100A700096C0628173819FEF623879070CF05BC08A
:100A800022E83FEF261B370B2A3131052CF020E0FE
:100A900030E040E050E02AC0B801A701022E04C0B7
:100AA00076956795579547950A94D2F781E090E03F
:100AB000A0E0B0E004C0880F991FAA1FBB1F2A95B1
:100AC000D2F70197A109B1098E219F21A023B1235B
:100AD0000097A105B10521F081E090E0A0E0B0E031
:100AE0009A01AB01282B392B4A2B5B2BDA01C90168
:100AF0008F779070A070B07080349105A105B1051A
:100B000039F427FF09C0205C3F4F4F4F5F4F04C0AF
:100B1000215C3F4F4F4F5F4FE0E0F0E02030A0E01E
:100B20003A07A0E04A07A0E45A0710F0E1E0F0E03D
:100B300079018A0127C06038710564F5FB01E1582D
:100B4000FF4FD801C7018F779070A070B0708034CC
:100B50009105A105B10539F4E7FE0DC080E490E0F0
:100B6000A0E0B0E004C08FE390E0A0E0B0E0E80EC9
:100B7000F91E0A1F1B1F17FF05C016950795F7944E
:100B8000E794319687E016950795F794E7948A9550
:100B9000D1F705C0EE24FF248701EFEFF0E06E2FC0
:100BA000679566276795902F9F77D794DD24D79414
:100BB0008E2F8695492F462B582F5D29B701CA01E4
:100BC0001F910F91FF90EF90DF900895FC01DB01E2
:100BD000408151812281622F6F7770E0221F22278E
:100BE000221F9381892F880F822B282F30E0991F95
:100BF0009927991F11969C93119721153105A9F5F5
:100C0000411551056105710511F482E037C082E894
:100C10009FEF13969C938E9312979A01AB0167E016
:100C2000220F331F441F551F6A95D1F783E08C9321
:100C30000DC0220F331F441F551F12968D919C919A
:100C40001397019713969C938E931297203080E010
:100C5000380780E0480780E4580758F314962D932E
:100C60003D934D935C93179708952F3F310579F489
:100C7000411551056105710519F484E08C930895BF
:100C800064FF03C081E08C9312C01C9210C02F57E8
:100C9000304013963C932E93129783E08C9387E019
:100CA000440F551F661F771F8A95D1F770641496FD
:100CB0004D935D936D937C93179708951F93DC017B
:100CC000FB019C91923008F447C08081823008F487
:100CD00043C0943051F411961C91843099F5818170
:100CE000682F70E0611B71093FC0843021F09230A1
:100CF00031F48230B9F18181882389F12DC01196B8
:100D00001C9111978230F1F081811817D9F4129655
:100D10002D913C911397828193818217930794F0D0
:100D200028173907BCF014968D919D910D90BC91B8
:100D3000A02D2481358146815781281739074A071C
:100D40005B0718F4112341F00AC082179307A40728
:100D5000B50740F4112319F061E070E005C06FEFB2
:100D60007FEF02C060E070E0CB011F9108958CB965
:100D700020E030E040E050E0EBE2F0E0808186FDF2
:100D80000CC02F5F3F4F4F4F5F4F203884E838072C
:100D90008EE1480780E0580789F708951F93CF93A5
:100DA000DF93EC018881882351F010E00E94B706A0
:100DB0001F5FFE01E10FF11D80818823B9F7DF91EC
:100DC000CF911F910895EBE2F0E080818823ECF74A
:100DD0008CB1089588E260E00E94F20889E261E047
:100DE0000E94F20887E089B9E0E4F0E080818F7E1C
:100DF000808380818F7D80838081877F8083AAE24A
:100E0000B0E08C918B7F8C93808184608083808123
:100E1000826080838C9180618C938C9188608C93AC
:100E20000895E3E5F0E080818F7B80838081886096
:100E30008083E9E5F0E080818260808308958F926D
:100E40009F92AF92BF92DF92EF92FF920F931F9308
:100E500028EE33E040E050E00E94AA114B015C0113
:100E6000689415F8B694A794979487941694D1F73C
:100E7000C501B4012FEF30E040E050E00E94D511F1
:100E8000611571058105910569F4DD24DA940F2E51
:100E9000FFEFEF2EF0E0FF2EF0E00F2FF0E01F2F1E
:100EA000F02D12C0DD24DA94DA94ED2CFF2400E05A
:100EB00010E0C501B401A80197010E94D511611588
:100EC00071058105910581F78D2D81508CBFC5017C
:100ED000B401A80197010E94D51120937C013093A1
:100EE0007D0140937E0150937F011F910F91FF90F0
:100EF000EF90DF90BF90AF909F908F9008958823E0
:100F000019F08130C1F40CC0E3E5F0E0808181602C
:100F1000808380818D7F8083808184608083089539
:100F2000EEE4F0E080818160808380818D7F80832A
:100F30008081846080830895882319F08130C1F412
:100F40000CC0E3E5F0E080818E7F808380818D7F1F
:100F5000808380818B7F80830895EEE4F0E0808140
:100F60008E7F808380818D7F808380818B7F808353
:100F70000895EF92FF920F931F937A018B018130B6
:100F8000D1F466B577B580E090E00E944904A801ED
:100F900097010E941F0220E030E048EC52E40E94DA
:100FA000190320E030E040E85FE30E94C1010E94A5
:100FB00049007BBD6ABD1F910F91FF90EF9008958E
:100FC0000E947F0708950E949C07089590938601D0
:100FD0008093850108951F920F920FB60F921124EE
:100FE0002F933F934F935F936F937F938F939F9331
:100FF000AF93BF93EF93FF93809181019091820112
:10100000A0918301B09184010196A11DB11D80932F
:10101000810190938201A0938301B0938401209178
:101020007C0130917D0140917E0150917F018217BA
:101030009307A407B50769F4E0918501F091860153
:1010400009951092810110928201109283011092F1
:101050008401FF91EF91BF91AF919F918F917F910B
:101060006F915F914F913F912F910F900FBE0F9015
:101070001F901895882319F0813061F50DC087E124
:1010800061E00E94F208E3E5F0E080818F7E8083DA
:1010900080818062808308958DE261E00E94F20881
:1010A000AFE4B0E08C918E7F8C938C9182608C93B6
:1010B000EEE4F0E0808188608083808180618083BD
:1010C0008C918F7B8C938C9180688C9384E091E0E1
:1010D00097BD86BD08958CE080B9E6E5F0E080819B
:1010E000846080830895E6E5F0E0808180628083FB
:1010F00080818068808380818823ECF7E1E2F0E0E2
:101100008081887F8830E1F70895E6E5F0E080810E
:10111000806180838081806880830895E6E5F0E0C7
:101120008081806280838081806880838081882341
:10113000ECF7E1E2F0E08081887F8031E1F708950B
:10114000880F83B9E6E5F0E0808180688083808144
:101150008823ECF7E1E2F0E08081887F8831E1F7D5
:101160000895880F816083B9E6E5F0E080818F7D86
:10117000808380818068808380818823ECF7E1E22E
:10118000F0E08081887F8034E1F7089583B9E6E557
:10119000F0E080818F7D8083808180688083808182
:1011A0008823ECF7E1E2F0E08081887F8832E1F784
:1011B0000895E6E5F0E080818F7D808380818068FE
:1011C000808380818823ECF783B10895EFE5F0E018
:1011D0008081806880830895EFE5F0E080818F77DB
:1011E00080830895282F362F6AE00E94C911492F65
:1011F000822F0E94C911332321F0313009F086C0BB
:1012000046C08230D1F0833020F4813009F07EC0B6
:1012100006C0833001F1843009F078C02AC0EAE3C7
:10122000F0E0208181E090E002C0880F991F4A958C
:10123000E2F78095822380830895E7E3F0E0208140
:1012400081E090E002C0880F991F4A95E2F78095EF
:10125000822380830895E4E3F0E0208181E090E040
:1012600002C0880F991F4A95E2F7809582238083F8
:101270000895E1E3F0E0208181E090E002C0880F72
:10128000991F4A95E2F780958223808308958230E2
:10129000B9F0833018F48130C9F505C08330E9F026
:1012A0008430A1F527C0EAE3F0E0208181E090E0FE
:1012B00002C0880F991F4A95E2F7282B20830895D2
:1012C000E7E3F0E0208181E090E002C0880F991F01
:1012D0004A95E2F7282B20830895E4E3F0E020818B
:1012E00081E090E002C0880F991F4A95E2F7282B11
:1012F00020830895E1E3F0E0208181E090E002C0E6
:10130000880F991F4A95E2F7282B20830895282FEC
:10131000362F6AE00E94C911492F822F0E94C911FD
:10132000332321F0313009F086C046C08230D1F03D
:10133000833020F4813009F07EC006C0833001F193
:10134000843009F078C02AC0EBE3F0E0208181E02E
:1013500090E002C0880F991F4A95E2F7809582239A
:1013600080830895E8E3F0E0208181E090E002C00E
:10137000880F991F4A95E2F780958223808308950C
:10138000E5E3F0E0208181E090E002C0880F991F42
:101390004A95E2F78095822380830895E2E3F0E0A6
:1013A000208181E090E002C0880F991F4A95E2F702
:1013B00080958223808308958230B9F0833018F4B9
:1013C0008130C9F505C08330E9F08430A1F527C02C
:1013D000EBE3F0E0208181E090E002C0880F991FEC
:1013E0004A95E2F7282B20830895E8E3F0E0208176
:1013F00081E090E002C0880F991F4A95E2F7282B00
:1014000020830895E5E3F0E0208181E090E002C0D0
:10141000880F991F4A95E2F7282B20830895E2E36D
:10142000F0E0208181E090E002C0880F991F4A958A
:10143000E2F7282B20830895282F6AE00E94C91123
:10144000392F822F0E94C9118230A1F0833018F405
:10145000813029F406C08330B1F08430E9F080E0B7
:10146000089589B390E002C0959587953A95E2F783
:101470008170089586B390E002C0959587953A955E
:10148000E2F78170089583B390E002C09595879547
:101490003A95E2F78170089580B390E002C0959587
:1014A00087953A95E2F781700895282F6AE00E94A7
:1014B000C911392F822F0E94C9118230B9F08330AF
:1014C00018F48130C9F505C08330E9F08430A1F506
:1014D00027C0EBE3F0E0208181E090E002C0880FBC
:1014E000991F3A95E2F7282720830895E8E3F0E072
:1014F000208181E090E002C0880F991F3A95E2F7C1
:10150000282720830895E5E3F0E0208181E090E042
:1015100002C0880F991F3A95E2F728272083089583
:10152000E2E3F0E0208181E090E002C0880F991FA3
:101530003A95E2F7282720830895282F362F6AE06E
:101540000E94C911492F822F0E94C911332321F013
:10155000313009F086C046C08230D1F0833020F4AB
:10156000813009F07EC006C0833001F1843009F07B
:1015700078C02AC0EBE3F0E0208181E090E002C077
:10158000880F991F4A95E2F78095822380830895FA
:10159000E8E3F0E0208181E090E002C0880F991F2D
:1015A0004A95E2F78095822380830895E5E3F0E091
:1015B000208181E090E002C0880F991F4A95E2F7F0
:1015C0008095822380830895E2E3F0E0208181E02A
:1015D00090E002C0880F991F4A95E2F78095822318
:1015E000808308958230B9F0833018F48130C9F5D2
:1015F00005C08330E9F08430A1F527C0EBE3F0E0CB
:10160000208181E090E002C0880F991F4A95E2F79F
:10161000282B20830895E8E3F0E0208181E090E02A
:1016200002C0880F991F4A95E2F7282B208308955E
:10163000E5E3F0E0208181E090E002C0880F991F8F
:101640004A95E2F7282B20830895E2E3F0E0208119
:1016500081E090E002C0880F991F4A95E2F7282B9D
:1016600020830895E7E2F0E08081806480838081B8
:101670008F77808380818F7D8083E6E2F0E08081B8
:1016800081608083808182608083808184608083A8
:101690008081806280838081806880838081806493
:1016A00080830895E7E2F0E09081907E892B80832B
:1016B00020E030E040E050E0E6E2F0E0808184FDB0
:1016C0000CC02F5F3F4F4F4F5F4F203884E83807E3
:1016D0008EE1480780E0580789F724B135B1822FA1
:1016E000932F08950E94E30608951F93CF93DF93ED
:1016F000EC018881882351F010E00E94B7061F5F3B
:10170000FE01E10FF11D80818823B9F7DF91CF91B0
:101710001F9108950E94B70608950E94EA06089551
:101720002F923F924F925F926F927F928F929F92F1
:10173000AF92BF92CF92DF92EF92FF920F931F93DF
:10174000DF93CF9300D000D0CDB7DEB77B018C0103
:101750002AE030E040E050E00E94D511B62EC801EA
:10176000B7012AE030E040E050E00E94D511CA0104
:10177000B9012AE030E040E050E00E94D511C62EC9
:10178000C801B70124E630E040E050E00E94D511E6
:10179000CA01B9012AE030E040E050E00E94D511D2
:1017A000D62EC801B70128EE33E040E050E00E9499
:1017B000D5118B2D869581708A838B2D8695869584
:1017C000817089838B2D8695869586952224239416
:1017D00028228C2D86953324339438228C2D86959F
:1017E00086954424439448228C2D8695869586952B
:1017F0005524539458228D2D86956624639468222F
:101800008D2D869586957724739478228D2D8695D7
:1018100086958695882483948822822F869599249C
:1018200093949822822F86958695AA24A394A82221
:10183000822F869586958695FF24F394F8221C8244
:101840001B8281E0B82200EA1FE0C822D822EE24E1
:10185000E394E22284E16B2D0E94870985E16A818D
:101860000E94870986E169810E94870988E1622DCB
:101870000E9487098DE060E00E948709C8010197F6
:10188000F1F78DE061E00E94870984E16C2D0E94F0
:10189000870985E1632D0E94870986E1642D0E94F6
:1018A000870988E1652D0E9487098CE060E00E942D
:1018B0008709C8010197F1F78CE061E00E94870970
:1018C00084E16D2D0E94870985E1662D0E948709BC
:1018D00086E1672D0E94870988E1682D0E948709AB
:1018E00089E160E00E948709C8010197F1F789E169
:1018F00061E00E94870984E16E2D0E94870985E1DD
:10190000692D0E94870986E16A2D0E94870988E176
:101910006F2D0E9487098AE160E00E948709C80153
:101920000197F1F78AE161E00E948709EB81FC8170
:101930003196FC83EB83E83CF10509F08BCF0F90E7
:101940000F900F900F90CF91DF911F910F91FF900B
:10195000EF90DF90CF90BF90AF909F908F907F904F
:101960006F905F904F903F902F90089584E161E0D9
:101970000E94F20885E161E00E94F20886E161E0E0
:101980000E94F20888E161E00E94F2088DE061E0C7
:101990000E94F2088CE061E00E94F20889E161E0B7
:1019A0000E94F2088AE161E00E94F2088DE061E0A5
:1019B0000E9487098CE061E00E94870989E161E06B
:1019C0000E9487098AE161E00E94870908958130B9
:1019D00029F1813038F0823009F43CC0833009F0BD
:1019E0006DC052C08FE20E941C0A882309F066C0B5
:1019F00024EF31E040E951E0CA010197F1F72150AD
:101A00003040D1F78FE20E941C0A882309F056C0AB
:101A10008FE20E941C0A8823D9F352C08EE20E94F2
:101A20001C0A882309F04AC024EF31E040E951E064
:101A3000CA010197F1F721503040D1F78EE20E94A0
:101A40001C0A882309F03AC08EE20E941C0A8823EF
:101A5000D9F336C08DE20E941C0A882379F524EF61
:101A600031E040E951E0CA010197F1F721503040DF
:101A7000D1F78DE20E941C0A882301F58DE20E94B5
:101A80001C0A8823D9F31CC08BE20E941C0A8823FD
:101A9000A9F424EF31E040E951E0CA010197F1F7E0
:101AA00021503040D1F78BE20E941C0A882331F488
:101AB0008BE20E941C0A8823D9F302C081E00895BA
:101AC00080E00895813061F0813028F0823069F043
:101AD0008330A1F40FC08FE260E00E94F208089505
:101AE0008EE260E00E94F20808958DE260E00E94BC
:101AF000F20808958BE260E00E94F20808958230B7
:101B000071F0833018F48130A9F405C0833059F0A6
:101B1000843081F40CC080E10E94550A08958FE062
:101B20000E94550A08958EE00E94550A08958BE19F
:101B30000E94550A08958230F9F0833020F48130F4
:101B400009F052C006C0833051F1843009F04CC016
:101B500039C080E161E00E94870928EB3BE040E961
:101B600051E0CA010197F1F721503040D1F780E1EF
:101B700060E00E94870908958FE061E00E94870974
:101B800028EB3BE040E951E0CA010197F1F7215011
:101B90003040D1F78FE060E00E94870908958EE021
:101BA00061E00E94870928EB3BE040E951E0CA016F
:101BB0000197F1F721503040D1F78EE060E00E94AC
:101BC000870908958BE161E00E94870928EB3BE0DB
:101BD00040E951E0CA010197F1F721503040D1F7B7
:101BE0008BE160E00E9487090895823079F08330AC
:101BF00018F48130C9F405C0833069F08430A1F451
:101C00000FC080E160E00E94870908958FE060E0E6
:101C10000E94870908958EE060E00E948709089578
:101C20008BE160E00E9487090895823079F083306B
:101C300018F48130C9F405C0833069F08430A1F410
:101C40000FC080E161E00E94870908958FE061E0A4
:101C50000E94870908958EE061E00E948709089537
:101C60008BE161E00E9487090895823079F083302A
:101C700018F48130C9F405C0833069F08430A1F4D0
:101C80000FC080E161E00E94F20808958FE061E0FA
:101C90000E94F20808958EE061E00E94F208089523
:101CA0008BE161E00E94F2080895EF92FF921F938A
:101CB000182F8DE060E00E948709612F62956F7098
:101CC000617084E10E948709612F62956695677053
:101CD000617085E10E948709612F6295669566951E
:101CE0006370617086E10E948709612F661F662715
:101CF000661F88E10E9487098CE061E00E948709E5
:101D00000F2EF0EAEF2EFFE0FF2EF02DC701019716
:101D1000F1F78CE060E00E948709C7010197F1F7B5
:101D2000612F617084E10E948709612F669561705F
:101D300085E10E948709612F66956695617086E14D
:101D40000E948709169516951695117088E1612FE6
:101D50000E9487098CE061E00E948709C701019712
:101D6000F1F78CE060E00E94870980E29EE4019731
:101D7000F1F71F91FF90EF900895DF93CF9300D07C
:101D800000D0CDB7DEB790E8998390EC9A8394E9C0
:101D90009B8394ED9C83FE01E80FF11D8181860FEA
:101DA0000E94550E0F900F900F900F90CF91DF91E2
:101DB000089581E00E94550E0895EF92FF921F93BF
:101DC000182F8DE061E00E948709612F62956F7086
:101DD000617084E10E948709612F62956695677042
:101DE000617085E10E948709612F6295669566950D
:101DF0006370617086E10E948709612F661F662704
:101E0000661F88E10E9487098CE061E00E948709D3
:101E10000F2EF0EAEF2EFFE0FF2EF02DC701019705
:101E2000F1F78CE060E00E948709C7010197F1F7A4
:101E3000612F617084E10E948709612F669561704E
:101E400085E10E948709612F66956695617086E13C
:101E50000E948709169516951695117088E1612FD5
:101E60000E9487098CE061E00E948709C701019701
:101E7000F1F78CE060E00E94870980E29EE4019720
:101E8000F1F71F91FF90EF900895AF92BF92CF921C
:101E9000DF92EF92FF920F93DF93CF93CDB7DEB730
:101EA0002C970FB6F894DEBF0FBECDBF6B017C013F
:101EB00099235CF4F094E094D094C094C11CD11C9C
:101EC000E11CF11C8DE20E94DD0EFE0131968AE0DC
:101ED000DF011D928A95E9F700E05F01802F9927C5
:101EE00087FD9095F501E80FF91FFC87EB87C70187
:101EF000B6012AE030E040E050E00E94F711AB85E7
:101F0000BC856C93C701B6012AE030E040E050E0A8
:101F10000E94F711822F932FA42FB52F6C017D0102
:101F20000F5FC114D104E104F104C1F6101694F45A
:101F30007E010894E11CF11C0150802F992787FD38
:101F40009095F701E80FF91F8081805D0E94DD0EFA
:101F5000101694F32C960FB6F894DEBF0FBECDBFCB
:101F6000CF91DF910F91FF90EF90DF90CF90BF90D6
:101F7000AF9008951F93CF93DF93EC01888188235E
:101F800051F010E00E94DD0E1F5FFE01E10FF11D18
:101F900080818823B9F7DF91CF911F91089584E163
:101FA00061E00E94F20885E161E00E94F20886E1AA
:101FB00061E00E94F20888E161E00E94F2088DE091
:101FC00061E00E94F2088CE061E00E94F20883E385
:101FD0000E94550E82E30E94550E88E20E94550E23
:101FE0008CE00E94550E82E00E94550E81E00E9416
:101FF000550E08952F923F924F925F926F927F926B
:102000008F929F92AF92BF92CF92DF92EF92FF9208
:102010000F931F93DF93CF93CDB7DEB769970FB6BA
:10202000F894DEBF0FBECDBF83E2898382E28A834C
:1020300081E28B8380E28C838FE28D838EE28E83BC
:102040008DE28F838BE28887DE011996E8E6F1E066
:1020500080E101900D928150E1F781E0898FAA24FF
:10206000BB240F2EF5E06F2E7724F02D6C0E7D1E15
:1020700000E911E0C801302E292E2501E1E0F0E051
:10208000EC0FFD1FEA0DFB1DC0808C2D60E00E944F
:102090008709EE24FF244701F301EE0DFF1DD080D8
:1020A0008D2D0E941C0A882309F5832D922DF8019D
:1020B0003197F1F70197D9F78D2D0E941C0A8823DB
:1020C000A9F48D2D0E941C0A8823D9F3C201880F20
:1020D000991F880F991FE1E0F0E0EC0FFD1FE80F5A
:1020E000F91FE80DF91D8085898F07C00894E11C50
:1020F000F11C84E0E816F10471F68C2D61E00E9479
:1021000087090894A11CB11C84E0A816B10409F049
:10211000B4CF898D69960FB6F894DEBF0FBECDBFE0
:10212000CF91DF911F910F91FF90EF90DF90CF90B3
:10213000BF90AF909F908F907F906F905F904F90E7
:102140003F902F90089583E261E00E94F20882E2BE
:1021500061E00E94F20881E261E00E94F20880E200
:1021600061E00E94F20883E261E00E94870982E256
:1021700061E00E94870981E261E00E94870980E2B4
:1021800061E00E9487098FE260E00E94F2088EE21F
:1021900060E00E94F2088DE260E00E94F2088BE2AB
:1021A00060E00E94F20808950F931F93182F062FE6
:1021B0000E9473081065812F0E94A008802F0E9442
:1021C000C6080E948E08812F0E94B1080E94D9087B
:1021D000182F0E948508812F1F910F910895FF925B
:1021E0000F931F93182F062FF42E0E947308812F30
:1021F00080650E94A008802F0E94C6088F2D0E9433
:10220000C6080E9485081F910F91FF9008950E94B3
:102210006B0828E833E140E951E0CA010197F1F782
:1022200021503040D1F7089584E261E00E9487098F
:1022300020E233E040E951E0CA010197F1F7215073
:102240003040D1F784E260E00E94870928E532E05F
:1022500040E951E0CA010197F1F721503040D1F730
:1022600084E261E00E94870920E233E040E951E026
:10227000CA010197F1F721503040D1F784E260E0C4
:102280000E948709089584E261E00E94870920E2A4
:1022900033E040E951E0CA010197F1F721503040A5
:1022A000D1F784E260E00E948709089584E260E04B
:1022B0000E948709089584E261E00E9487090895D9
:1022C00084E20E94550A089584E261E00E94F208C7
:1022D00008950895EF92FF921F93CF93DF930E948A
:1022E000CF0F0E94071182E060E00E94D410182FE7
:1022F0000F2EF0E7EF2EF7E1FF2EF02DC0E9D1E031
:10230000612F70E080E090E00E94450F9701CE01C0
:102310000197F1F721503040D1F71F5F82E060E074
:10232000412F0E94EF100E94D90EEACF0E94E608CA
:1023300089E691E10E94E6070E94110768EE73E0CA
:1023400080E090E00E941F0780E00E947F0780E00D
:1023500090E00895629FD001739FF001829FE00D8D
:10236000F11D649FE00DF11D929FF00D839FF00D14
:10237000749FF00D659FF00D9927729FB00DE11DC0
:10238000F91F639FB00DE11DF91FBD01CF0111249D
:102390000895991B79E004C0991F961708F0961BC1
:1023A000881F7A95C9F780950895A1E21A2EAA1B75
:1023B000BB1BFD010DC0AA1FBB1FEE1FFF1FA217F5
:1023C000B307E407F50720F0A21BB30BE40BF50BF2
:1023D000661F771F881F991F1A9469F7609570957B
:1023E000809590959B01AC01BD01CF01089597FBAD
:1023F000092E05260ED057FD04D0D7DF0AD0001CC9
:1024000038F450954095309521953F4F4F4F5F4F91
:102410000895F6F790958095709561957F4F8F4F51
:102420009F4F08952F923F924F925F926F927F92AB
:102430008F929F92AF92BF92CF92DF92EF92FF92D4
:102440000F931F93CF93DF93CDB7DEB7CA1BDB0B80
:102450000FB6F894DEBF0FBECDBF09942A88398825
:1024600048885F846E847D848C849B84AA84B9842C
:10247000C884DF80EE80FD800C811B81AA81B98138
:10248000CE0FD11D0FB6F894DEBF0FBECDBFED014C
:062490000895F894FFCF4F
:102496000000000000000000000102020303030325
:1024A60004040404040404040505050505050505DE
:1024B60005050505050505050606060606060606BE
:1024C60006060606060606060606060606060606A6
:1024D600060606060606060607070707070707078E
:1024E6000707070707070707070707070707070776
:1024F6000707070707070707070707070707070766
:102506000707070707070707070707070707070755
:10251600070707070707070708080808080808083D
:102526000808080808080808080808080808080825
:102536000808080808080808080808080808080815
:102546000808080808080808080808080808080805
:1025560008080808080808080808080808080808F5
:1025660008080808080808080808080808080808E5
:1025760008080808080808080808080808080808D5
:1025860008080808080808080808080808080808C5
:10259600080808080808080831323341343536423D
:0825A600373839432A30234481
:00000001FF
